:1000000094C0C8C0ADC0ACC0ABC0AAC0A9C0A8C095
:10001000A7C0A6C0A5C0A4C0A3C0A2C0A1C0A0C0C4
:100020005DC89EC09DC09CC09BC09AC099C098C02E
:1000300097C096C00853544B3530305F32000600ED
:10004000FF0901A101150026FF0075088501950E25
:100050000900B202018502951E0900B20201850362
:10006000953E0900B202018504957E0900B20201A5
:100070008505953E0900B20201C00403090412037C
:100080006F0062006400650076002E00610074005D
:100090001A0372006F0062006F007000650061005B
:1000A0006B002E006E0065007400140341005600C2
:1000B00052002D0044006F007000650072001403B0
:1000C000520050002D004200720069006400670079
:1000D0006500120361007600720064006F0070001A
:1000E000650072001203620072006900640067001C
:1000F0006500760032001201010100000008C01600
:10010000DF05000101020001090222000101008057
:10011000640904000000030000000921010100013E
:10012000223C000705810308000A11241FBECFEFFF
:10013000D4E0DEBFCDBF11E0A0E0B1E0E0E3F2E14A
:1001400002C005900D92A232B107D9F713E0A2E2E6
:10015000B1E001C01D92A13AB107E1F735D566C8FB
:100160004FCFA82FB92F80E090E041E050EA609592
:100170006F5F58F42D9138EF82279795879510F08F
:10018000842795273F5FC8F3F3CF0895EADF8D9367
:100190009D930895CF93CFB7CF93C395189BE9F75D
:1001A000189B09C0189B07C0189B05C0189B03C06B
:1001B000189B01C0A6C0DF93C0918403DD27C557FB
:1001C000DC4F189B02C0DF91EBCF2F930F931F934F
:1001D00003B12FEF00FB20F94F933F9313B14FEF83
:1001E000012700FB21F93BE031C04E7F012F13B105
:1001F000216028C0102F4D7F2260000003B129C06C
:100200004B7F2460012F000013B12BC013B1477F37
:1002100028602AC04F7E03B120612CC04F7D13B1EE
:1002200020622FC04F7B03B1206432C0422703B14C
:1002300049934FEF0000102710FB20F913B1137002
:10024000C9F1297F91F2012700FB21F903B1237F36
:1002500089F2315058F1102710FB22F913B1277E93
:1002600079F2012700FB23F92F7C81F203B11027DB
:1002700010FB24F92F7971F200C013B1012700FBA4
:1002800025F92F7359F200C003B1102710FB26F98E
:10029000223040F200C013B1012700FB27F92430BF
:1002A00028F64F77206813B10000F9CF11E01CBB8E
:1002B00000271CC03B503195C31BD04011E01CBB34
:1002C0000881033C11F10B3401F120918203198163
:1002D000110F1213EDCF4A81441F093659F10D3227
:1002E00011F0013E29F74F7009F0042F00938903A4
:1002F0003F914F911F910F912F91DF91CCB3C0FD92
:100300004CCFCF91CFBFCF91189520918903222355
:1003100079F310918703112311F5343012F13093E2
:10032000870320938303109184033BE0311B3093B8
:10033000840317C00091870301308CF40AE53091E3
:10034000000134FD10C000930001C7E7D3E00FC0E7
:100350002795A8F45150A9F4220F0000F9CF4AE5DF
:1003600003C042ED01C0432FC4E1D0E032E014B13C
:100370001360289A14B905B120E413E05F930127B4
:1003800056E005B9279520F4515021F4220FF9CFFA
:10039000012756E000003B5A05B9D0F2279528F412
:1003A000515029F4220F0000F9CF012756E027957C
:1003B00005B920F4515021F4220FF9CF012756E05E
:1003C0002991332305B921F60C7F10918803110F71
:1003D000C651D04005B911F01093820311E01CBB47
:1003E000016014B11C7F402F4C7F5F9100C000C0A2
:1003F00005B914B945B97CCFFB01DC0105900D921C
:100400000020E1F70895E9E6F0E0808183608083D1
:10041000E89A08951F93CF93DF9360918703635009
:1004200067FD8DC080918403CCE0D0E0C81BD1096A
:10043000C557DC4F80918303803118F4CE01E1D59C
:100440007CC08D3209F069C0683009F076C083EC59
:10045000809377038AE580930001109222018881BE
:10046000807621F0CE01B5D5282F44C09A81109214
:1004700080038981882321F41092810322E033C014
:10048000853019F4909388032DC08630E1F48B8178
:10049000813031F0823021F0833011F0813221F44B
:1004A000CE0151D5282F0BC0823211F020E007C0B9
:1004B0008EE390E090938603809385032CE380E4A1
:1004C0008093220117C0883021F421E08AE893E06C
:1004D0000CC0893019F490938A0304C08A3011F457
:1004E00021E001C020E080E893E0909386038093B0
:1004F000850309C02F3F39F4888187FD2E8180E86C
:100500008093220106C08F81882319F48E8182177F
:1005100008F0822F8093010110C08091220187FF93
:100520000CC0CE016FD58F3F21F48EE18093000186
:1005300004C0882311F0109201011092870380916A
:10054000000184FF58C0809101018F3F09F453C01E
:10055000182F893008F018E0811B809301018091E9
:10056000770398E8892780937703112391F180918D
:10057000220187FF08C088E793E0612F76D5182F06
:10058000893098F526C0209185033091860386FF37
:100590000DC0A8E7B3E080E090E0F901E80FF91F93
:1005A000E491ED9301961817C1F708C0912FD90176
:1005B000E8E7F3E08D9181939150E1F71150812F9D
:1005C00090E01F5F0196820F931F909386038093A4
:1005D000850388E793E0612FD9DD612F6C5F6C3074
:1005E00041F08FEF8093010104C08FEF80930101F0
:1005F0006EE16093000194E183B1837031F4915016
:10060000D9F71092880310928203DF91CF911F9146
:100610000895EF92FF920F931F93CF93DF93EC0116
:10062000F62EE0902701F89410E018C0188108E039
:1006300017FF02C02B9A01C02B9878948E2D85D27B
:10064000F8942D9A110F1C99116078948E2D7DD2FB
:10065000F8942D98015061F72196FA94FF2031F714
:100660007894812FDF91CF911F910F91FF90EF90A0
:100670000895AF92BF92CF92DF92EF92FF920F93C5
:100680001F93CF93DF93EC015B0188811A8181175F
:1006900008F4182FCE010396612FBBDF7501089473
:1006A000E11CF11C00E0C12EDD2412C02C0D3D1D0B
:1006B0002D5F3F4FCE01820F931F61E0AADF982F7D
:1006C0008981081718F4F70191937F01A8950F5FAE
:1006D000202F30E0888190E08C199D092817390778
:1006E0002CF30BC01092230183E291E061E091DFD3
:1006F000F70181937F01A8950F5F8981081790F317
:10070000F5011082F7011082298130E02E5F3F4F02
:10071000C901DF91CF911F910F91FF90EF90DF9072
:10072000CF90BF90AF9008951F93CF93DF93EC01CC
:10073000019668816EDF182F2881243040F4822FC3
:1007400090E0019664E0621B8C0F9D1F62DF812F99
:10075000DF91CF911F91089564E05BDF80E0089501
:10076000AF92BF92CF92DF92EF92FF920F931F93BF
:10077000CF93DF93EC017B01C42E1092260144231A
:1007800089F480912F0187FF0DC08DE480932301B0
:100790001092240180912E018093250183E291E043
:1007A00064E037DF9881898157010894A11CB11C4E
:1007B000F7011082DA80EC0100E010E01FC0A8957C
:1007C00080912D018093240180912C01809325013B
:1007D000CC2041F400FF03C0F8E0DF2A03C087EF1C
:1007E000D82201C025D2D092230183E291E064E0B7
:1007F00010DFF50181935F010F5F1F4F0C171D077D
:10080000F0F2EC0EFD1EF70111829E012E5F3F4FAC
:10081000C901DF91CF911F910F91FF90EF90DF9071
:10082000CF90BF90AF9008952598239822982D9847
:100830002B985798FC01618170E080E090E096D49D
:100840000895DF92EF92FF920F931F93CF93DF9360
:10085000EC0180911A016981882311F0813019F42B
:100860001092270117C0823011F481E011C083304B
:1008700011F482E00DC090E001969C01359527951A
:100880003595279534E0959587953A95E1F7820F50
:1008900080932701579A259A239A229A70E080E044
:1008A00090E064D48091270150D12A9A8091270149
:1008B0004CD12A986A8170E080E090E057D497E0AC
:1008C000E92EF12CEC0EFD1E10E284E0D82E1DC0A6
:1008D000A895C7016E819DDE082F2E81243040F43B
:1008E000822F90E007966D2D621B8C0F9D1F91DE6D
:1008F0008D81081711F480E011C02D9A8091270195
:1009000024D12D988091270120D1115008F72598E6
:10091000239822982D982B98579880ECDF91CF91AF
:100920001F910F91FF90EF90DF9008951F9319D1C1
:1009300010EF14C020916E0330916F03409170034B
:10094000509171038091280190E0A0E0B0E0281759
:1009500039074A075B0710F081E80BC010932301A9
:100960001092240183E291E064E053DE80FDE2CF47
:1009700080E01F910895FF920F931F938C01FC015B
:10098000F080029664E045DEF8018181882341F021
:10099000F9E0FF1510F05AE0F52E8F2DC7DF06C0E5
:1009A0006F2D70E080E090E0E1D380E01F910F9127
:1009B000FF9008953F924F925F926F927F928F9235
:1009C0009F92AF92BF92CF92DF92EF92FF920F93DE
:1009D0001F93CF93DF93EC01362EE880F9808A8154
:1009E00080FD03C004E018E002C000E210E4332000
:1009F00099F480912F0187FF0FC08DE4809323012C
:100A00001092240180912E018093250110922601DD
:100A100083E291E064E0FDDDCF2CDE2C260108941A
:100A2000410851085E01EE24FF24602E7724812EB8
:100A3000992474C0A89580912D0180932401809100
:100A40002C0180932501F5018185809326011C816D
:100A5000332021F4177FE0FE02C01860E9D0109324
:100A6000230183E291E064E0D4DD8A8180FF0DC040
:100A7000E414F50408F449C087FF47C08D818093D2
:100A8000230183E291E064E0C4DD8A81282F30E015
:100A9000C30182239323892B61F1F50111858F8195
:100AA000181771F18885181759F18E81877FE0FC3E
:100AB0008860809323018B8154D014C020916E03F1
:100AC00030916F0340917003509171038091280120
:100AD00090E0A0E0B0E0281739074A075B0710F064
:100AE00080E814C083E291E064E093DD811731F780
:100AF0000CC028213921232B19F08B8117DF06C068
:100B00006B8170E080E090E031D380E00894A11C1C
:100B1000B11C882341F40894E11CF11CEC14FD0481
:100B200008F488CF80E0DF91CF911F910F91FF9063
:100B3000EF90DF90CF90BF90AF909F908F907F907D
:100B40006F905F904F903F900895982FF89481E0B8
:100B500083BD86B5980F789486B5891B87FDFCCF39
:100B60000895982F9F5F86958695981B90932801EE
:100B700010926E0310926F03109270031092710323
:100B8000089594E6899FC001112490932A018093CF
:100B90002901109272031092730310927403109241
:100BA000750308950BD315B814B818B817B81BB847
:100BB0001AB85F985E9857985698429A299828983C
:100BC00021982098209A08958FE028E130E00FB610
:100BD000F894A895209360000FBE80936000E2DF38
:100BE00081E080932B01579A64E670E080E090E00A
:100BF000BDD2579864E670E080E090E0B7D2569A94
:100C000064E670E080E090E0B1D25698A89560E884
:100C100070E080E090E0AAD260E870E080E090E0D0
:100C2000A5D22098F0DB7894A895F4DB84D1FCCF92
:100C300080912C0190912D01A0912E01B0912F0156
:100C40000196A11DB11D80932C0190932D01A093BD
:100C50002E01B0932F0108952BE1209335012091AF
:100C600051022093360190933701809338012EE092
:100C7000209339011092340110923301069690931B
:100C80003201809331019C0121503040E5E3F1E0D5
:100C900090E004C081919827215030402115310502
:100CA000C9F79083089520913101309132018091EC
:100CB000330190913401281B390BC901089520910B
:100CC0003101309132012115310519F4EFEFFFEFB9
:100CD00019C08091330190913401FC01EB5CFE4F0F
:100CE000E08101969093340180933301821793073A
:100CF00040F01092320110923101109234011092A2
:100D00003301F0E0CF010895682F209172033091F4
:100D10007303409174035091750380912901909160
:100D20002A01A0E0B0E0281739074A075B0720F046
:100D300010924F0210924E0280914E0290914F02FB
:100D4000009731F46B3109F056C010926B0305C067
:100D500021E08931920708F04AC0FC01E05BFD4FB9
:100D60006083FC013196F0934F02E0934E02209194
:100D70006B03262720936B03E430F105A9F48091DF
:100D80005302809369038091520280936A03809199
:100D9000690390916A03069690936A0380936903AE
:100DA0008A51914040F123C0E530F10519F46E30CD
:100DB000F1F421C0E530F105F0F0809169039091E4
:100DC0006A03E817F907B9F410924F0210924E0225
:100DD000222321F481E0809330010DC080EB8093C9
:100DE0003A0180933B0182E090E036DF04C010922C
:100DF0004F0210924E0288ECC4DE0895CF93DF9329
:100E0000C2E0D0E04091550240933A0110923B017C
:100E1000569A403121F486E592E013DD84C04131D9
:100E200021F486E592E000DD80C0423121F486E5C0
:100E300092E0A1DD78C0433111F0453131F44351E6
:100E400086E592E0642FB6DD6EC0443111F0463184
:100E500039F4445186E592E06BE371E081DC20C017
:100E6000473199F0483131F04A3121F04B3111F0DE
:100E70004C3149F486E592E057DC80933C011092B6
:100E80003D01C4E052C0493121F486E592E064DCC2
:100E90004AC04D3141F486E592E06BE371E0E9DB55
:100EA000EC01219642C0413039F48CE391E064E3D7
:100EB00070E0A2DACBE039C0423059F4E09156023A
:100EC000F0E0EF71F070EE5FFE4F8091570280838B
:100ED0002CC0433091F4E0915602E63949F0E739ED
:100EE00039F0F0E0EF71F070EE5FFE4FE08101C08D
:100EF000E0E0E0933C01C3E018C0463089F4809103
:100F0000560280932F018091570280932E01809189
:100F1000580280932D018091590280932C0105C0C5
:100F20004D3219F080EC80933B015698CE0194DE4F
:100F3000DF91CF91089580913001882319F01092AC
:100F400030015CDF0895FC0192818381823039F0A9
:100F5000833049F08130A9F526EF30E02DC028E03C
:100F600031E082E231C0913059F0913028F0923076
:100F700091F0933049F51AC02AE730E084E024C0AC
:100F800080912B01813019F42EE730E015C020E963
:100F900030E08AE119C080912B01813019F42AEAEE
:100FA00030E002C02EEB30E084E10EC080912B01D6
:100FB000813021F422ED30E082E106C024EE30E001
:100FC000FBCF2AE131E089E030938603209385034B
:100FD0000895FC01918180818076803281F4913086
:100FE00011F0993061F4828180936D03853011F0A6
:100FF00081E001C083E080936C038FEF089580E06F
:10100000089508950F931F93CF93DF93FC01162F3C
:1010100090916C03892F8150823000F500E0683098
:1010200009F001E0913011F0EF0109C08181809356
:101030006D03EF012296125082E080936C03809141
:101040006D03882361F088815FDE80916D0381509C
:1010500080936D03115019F02196F1CF01E0802F9C
:10106000DF91CF911F910F9108950F931F93CF930D
:10107000DF93EC01062F90916C03892F8150823011
:1010800010F000E025C0913011F0162F13C00BDED8
:10109000282F80916D03FE018193992311F08FEF2A
:1010A00001C0822F8983EF012196102F125082E018
:1010B00080936C0380916D03882351F000DE97FDCF
:1010C00005C08883115021F02196F8CF10926D034E
:1010D000802FDF91CF911F910F9108951F920F9252
:1010E0000FB60F9211242F933F938F939F93AF933B
:1010F000BF938091720390917303A0917403B09198
:101100007503309176030196A11DB11D232F235D38
:101110002D3720F02D570196A11DB11D2093760388
:101120008093720390937303A0937403B093750339
:1011300080916E0390916F03A0917003B091710341
:101140000196A11DB11D80936E0390936F03A09330
:101150007003B0937103BF91AF919F918F913F91B5
:101160002F910F900FBE0F901F901895EF92FF9246
:101170000F931F937B018C01F8942091720330919F
:10118000730340917403509175037894F89480919F
:10119000720390917303A0917403B09175037894D6
:1011A000821B930BA40BB50BE816F9060A071B0765
:1011B00068F71F910F91FF90EF900895F89484B510
:1011C000826084BD84B5816084BD85B5826085BD43
:1011D00085B5816085BDEEE6F0E080818160808329
:1011E000E1E8F0E08081826080838081816080839B
:1011F000E0E8F0E0808181608083E1EBF0E08081D5
:1012000084608083E0EBF0E0808181608083EAE7A6
:10121000F0E080818460808380818260808380812F
:101220008E7F80831092C10078940895F894FFCF48
:101230005AFF000000000000000000000000000055
:10124000000001020400320001800200AA00000038
:0212500000009C
:00000001FF
